{
  "abi": [
    {
      "type": "constructor",
      "inputs": [
        {
          "name": "_nftAddress",
          "type": "address",
          "internalType": "address"
        },
        {
          "name": "_erc20Address",
          "type": "address",
          "internalType": "address"
        }
      ],
      "stateMutability": "nonpayable"
    },
    {
      "type": "function",
      "name": "addNFT",
      "inputs": [
        {
          "name": "tokenId",
          "type": "uint256",
          "internalType": "uint256"
        }
      ],
      "outputs": [],
      "stateMutability": "nonpayable"
    },
    {
      "type": "function",
      "name": "availableNFTCount",
      "inputs": [],
      "outputs": [
        {
          "name": "",
          "type": "uint256",
          "internalType": "uint256"
        }
      ],
      "stateMutability": "view"
    },
    {
      "type": "function",
      "name": "erc20Token",
      "inputs": [],
      "outputs": [
        {
          "name": "",
          "type": "address",
          "internalType": "contract IERC20"
        }
      ],
      "stateMutability": "view"
    },
    {
      "type": "function",
      "name": "nftContract",
      "inputs": [],
      "outputs": [
        {
          "name": "",
          "type": "address",
          "internalType": "contract NFT"
        }
      ],
      "stateMutability": "view"
    },
    {
      "type": "function",
      "name": "onERC721Received",
      "inputs": [
        {
          "name": "",
          "type": "address",
          "internalType": "address"
        },
        {
          "name": "",
          "type": "address",
          "internalType": "address"
        },
        {
          "name": "",
          "type": "uint256",
          "internalType": "uint256"
        },
        {
          "name": "",
          "type": "bytes",
          "internalType": "bytes"
        }
      ],
      "outputs": [
        {
          "name": "",
          "type": "bytes4",
          "internalType": "bytes4"
        }
      ],
      "stateMutability": "nonpayable"
    },
    {
      "type": "function",
      "name": "owner",
      "inputs": [],
      "outputs": [
        {
          "name": "",
          "type": "address",
          "internalType": "address"
        }
      ],
      "stateMutability": "view"
    },
    {
      "type": "function",
      "name": "redeemNFT",
      "inputs": [
        {
          "name": "content",
          "type": "string",
          "internalType": "string"
        }
      ],
      "outputs": [],
      "stateMutability": "nonpayable"
    },
    {
      "type": "function",
      "name": "renounceOwnership",
      "inputs": [],
      "outputs": [],
      "stateMutability": "nonpayable"
    },
    {
      "type": "function",
      "name": "transferOwnership",
      "inputs": [
        {
          "name": "newOwner",
          "type": "address",
          "internalType": "address"
        }
      ],
      "outputs": [],
      "stateMutability": "nonpayable"
    },
    {
      "type": "event",
      "name": "NFTAdded",
      "inputs": [
        {
          "name": "tokenId",
          "type": "uint256",
          "indexed": false,
          "internalType": "uint256"
        }
      ],
      "anonymous": false
    },
    {
      "type": "event",
      "name": "NFTRemoved",
      "inputs": [
        {
          "name": "tokenId",
          "type": "uint256",
          "indexed": false,
          "internalType": "uint256"
        }
      ],
      "anonymous": false
    },
    {
      "type": "event",
      "name": "OwnershipTransferred",
      "inputs": [
        {
          "name": "previousOwner",
          "type": "address",
          "indexed": true,
          "internalType": "address"
        },
        {
          "name": "newOwner",
          "type": "address",
          "indexed": true,
          "internalType": "address"
        }
      ],
      "anonymous": false
    },
    {
      "type": "event",
      "name": "Redeemed",
      "inputs": [
        {
          "name": "redeemer",
          "type": "address",
          "indexed": false,
          "internalType": "address"
        },
        {
          "name": "tokenId",
          "type": "uint256",
          "indexed": false,
          "internalType": "uint256"
        },
        {
          "name": "tokenType",
          "type": "uint8",
          "indexed": false,
          "internalType": "enum NFT.TokenType"
        },
        {
          "name": "content",
          "type": "string",
          "indexed": false,
          "internalType": "string"
        }
      ],
      "anonymous": false
    },
    {
      "type": "error",
      "name": "OwnableInvalidOwner",
      "inputs": [
        {
          "name": "owner",
          "type": "address",
          "internalType": "address"
        }
      ]
    },
    {
      "type": "error",
      "name": "OwnableUnauthorizedAccount",
      "inputs": [
        {
          "name": "account",
          "type": "address",
          "internalType": "address"
        }
      ]
    }
  ],
  "bytecode": {
    "object": "0x608060405234801561001057600080fd5b50604051610a52380380610a5283398101604081905261002f916100fc565b338061005557604051631e4fbdf760e01b81526000600482015260240160405180910390fd5b61005e81610090565b50600180546001600160a01b039384166001600160a01b0319918216179091556002805492909316911617905561012f565b600080546001600160a01b038381166001600160a01b0319831681178455604051919092169283917f8be0079c531659141344cd1fd0a4f28419497f9722a3daafe3b4186f6b6457e09190a35050565b80516001600160a01b03811681146100f757600080fd5b919050565b6000806040838503121561010f57600080fd5b610118836100e0565b9150610126602084016100e0565b90509250929050565b6109148061013e6000396000f3fe608060405234801561001057600080fd5b50600436106100935760003560e01c80638a13eea7116100665780638a13eea7146100f75780638da5cb5b1461012257806399d5441e14610133578063d56d229d14610146578063f2fde38b1461015957600080fd5b806308a9d39814610098578063150b7a02146100ad578063715018a6146100de57806376c4b7db146100e6575b600080fd5b6100ab6100a636600461066a565b61016c565b005b6100c06100bb3660046106c8565b610396565b6040516001600160e01b031990911681526020015b60405180910390f35b6100ab6103a7565b6003546040519081526020016100d5565b60025461010a906001600160a01b031681565b6040516001600160a01b0390911681526020016100d5565b6000546001600160a01b031661010a565b6100ab610141366004610748565b6103bb565b60015461010a906001600160a01b031681565b6100ab610167366004610761565b610523565b6002546040516370a0823160e01b815233600482015269010f0cf064dd59200000916001600160a01b0316906370a0823190602401602060405180830381865afa1580156101be573d6000803e3d6000fd5b505050506040513d601f19601f820116820180604052508101906101e29190610785565b116102345760405162461bcd60e51b815260206004820152601a60248201527f496e73756666696369656e742024414e4f4e2062616c616e636500000000000060448201526064015b60405180910390fd5b6003546102835760405162461bcd60e51b815260206004820181905260248201527f4e6f204e46547320617661696c61626c6520666f7220726564656d7074696f6e604482015260640161022b565b60038054600091906102979060019061079e565b815481106102a7576102a76107c5565b60009182526020822001546001546040516306a62fd960e11b81529193506001600160a01b031691630d4c5fb2916102e6918591879190600401610843565b600060405180830381600087803b15801561030057600080fd5b505af1158015610314573d6000803e3d6000fd5b5050505060038054806103295761032961086b565b600082815260208082208301600019908101839055909201909255828252600490526040808220805460ff19169055517ff1caebe6896742943340cc9adc623db2fc187552de6b599a1c1879f235e289f39161038a91339185918790610881565b60405180910390a15050565b630a85bd0160e11b5b949350505050565b6103af610561565b6103b9600061058e565b565b6103c3610561565b6001546040516331a9108f60e11b81526004810183905230916001600160a01b031690636352211e90602401602060405180830381865afa15801561040c573d6000803e3d6000fd5b505050506040513d601f19601f8201168201806040525081019061043091906108c1565b6001600160a01b03161461044357600080fd5b60008181526004602052604090205460ff16156104a25760405162461bcd60e51b815260206004820152601760248201527f546f6b656e20616c726561647920617661696c61626c65000000000000000000604482015260640161022b565b6003805460018082019092557fc2575a0e9e593c00f959f8c92f12db2869c3395a3b0502d05e2516446f71f85b01829055600082815260046020908152604091829020805460ff1916909317909255518281527f9124ba16075808b9784d61b25df63e4f815e7aec8f95da7bec3322bd24de8ddf910160405180910390a150565b61052b610561565b6001600160a01b03811661055557604051631e4fbdf760e01b81526000600482015260240161022b565b61055e8161058e565b50565b6000546001600160a01b031633146103b95760405163118cdaa760e01b815233600482015260240161022b565b600080546001600160a01b038381166001600160a01b0319831681178455604051919092169283917f8be0079c531659141344cd1fd0a4f28419497f9722a3daafe3b4186f6b6457e09190a35050565b634e487b7160e01b600052604160045260246000fd5b600067ffffffffffffffff8084111561060f5761060f6105de565b604051601f8501601f19908116603f01168101908282118183101715610637576106376105de565b8160405280935085815286868601111561065057600080fd5b858560208301376000602087830101525050509392505050565b60006020828403121561067c57600080fd5b813567ffffffffffffffff81111561069357600080fd5b8201601f810184136106a457600080fd5b61039f848235602084016105f4565b6001600160a01b038116811461055e57600080fd5b600080600080608085870312156106de57600080fd5b84356106e9816106b3565b935060208501356106f9816106b3565b925060408501359150606085013567ffffffffffffffff81111561071c57600080fd5b8501601f8101871361072d57600080fd5b61073c878235602084016105f4565b91505092959194509250565b60006020828403121561075a57600080fd5b5035919050565b60006020828403121561077357600080fd5b813561077e816106b3565b9392505050565b60006020828403121561079757600080fd5b5051919050565b818103818111156107bf57634e487b7160e01b600052601160045260246000fd5b92915050565b634e487b7160e01b600052603260045260246000fd5b6000815180845260005b81811015610801576020818501810151868301820152016107e5565b506000602082860101526020601f19601f83011685010191505092915050565b6002811061083f57634e487b7160e01b600052602160045260246000fd5b9052565b83815260606020820152600061085c60608301856107db565b905061039f6040830184610821565b634e487b7160e01b600052603160045260246000fd5b6001600160a01b0385168152602081018490526108a16040820184610821565b6080606082015260006108b760808301846107db565b9695505050505050565b6000602082840312156108d357600080fd5b815161077e816106b356fea2646970667358221220b726648075a29a3037c3f255d9758a788b990b07bc19e31af3d2c96fdcdbaf5164736f6c63430008190033",
    "linkReferences": {}
  },
  "methodIdentifiers": {
    "addNFT(uint256)": "99d5441e",
    "availableNFTCount()": "76c4b7db",
    "erc20Token()": "8a13eea7",
    "nftContract()": "d56d229d",
    "onERC721Received(address,address,uint256,bytes)": "150b7a02",
    "owner()": "8da5cb5b",
    "redeemNFT(string)": "08a9d398",
    "renounceOwnership()": "715018a6",
    "transferOwnership(address)": "f2fde38b"
  },
  "id": 39
}